:03000000020B767A
:0C0B7600787FE4F6D8FD758127020BBDE6
:10065A00256264002530326258003D3D3D3D3D3DF6
:10066A003D3D3D3D3D3D3D3D3D3D3D3D3D3D3D3DB0
:10067A003D3D3D3D3D3D3D3D3D3D3D3D3D3D3D3DA0
:10068A003D3D3D3D3D3D3D3D3D3D3D3D3D3D3D3D90
:10069A003D3D3D3D3D3D3D3D3D3D3D3D3D3D3D3D80
:1006AA003D3D3D3D3D3D3D3D3D3D0A002020202054
:1006BA00200053746570204D6F746F7220436F6E03
:1006CA0074726F6C2053797374656D2053657276FA
:1006DA006572000A0056657273696F6E20202020C9
:1006EA0020202020202020203A2000312E34004DC6
:1006FA00617820636F6465206C656E67746820207A
:10070A0020203A2000436F646520626F6479206C70
:10071A00656E6774682020203A2000466F72206D4B
:10072A006F72652064657469616C20696E666F72A8
:10073A006D6174696F6E2C20706C656173652072CF
:10074A00656164207468652070726F6772616D20DC
:10075A006D616E75616C20696E204F5559414E4727
:10076A00204C61622E0A0052414D20636F6465205D
:10077A00696E666F726D6174696F6E0A002020205F
:10078A0020636F6465206964202020203A200020BD
:10079A00202020636F6465206C656E6774683A2058
:1007AA000020202020636F6465206461746120202A
:1007BA003A20002000454550524F4D20636F646532
:1007CA0020696E666F726D6174696F6E0A00537488
:1007DA006F7261676520697320656D7074792E0A7E
:1007EA0000436F6465206C6F616465642E0A004380
:1007FA006F64652073617665642E0A00436F6465D1
:10080A00207772697474656E2E0A0052756E6E696D
:10081A006E67202E2E2E0A0052756E6E696E672044
:10082A0066696E69736865642E0A00526573657439
:10083A002073656E64206279746520636F756E74C7
:10084A002E0A002A2A2A2A205245534554202A2AA7
:04085A002A2A0A003C
:100C02006030003000000000000000000000000022
:100C120000000000000000000000000000000000D2
:100C220000000000000000000000000000000000C2
:100C320000000000012600012300603000000000D7
:100C420000000000000000000000000000000000A2
:100C52000000000000000000000000000000000092
:100C6200000000000000000000000000000001225F
:080C720000012700022400002C
:040F07001209FAFFD2
:100F0B00D28CEFFDC3E5259DE524940040F4C28C03
:060F1B00E4F524F5252297
:070EA5007FFF120EAC7F017C
:100EAC00AD07D28CED75F00AA4FFC3E5259FE524B0
:0C0EBC0095F040F0C28CE4F524F52522EE
:0E0F6C0075E50375E64675E6B97F0A020EAC20
:10000E008FE475E50175E64675E6B97F01120EAC13
:03001E00AFE2222C
:100F5A008FE28DE475E50275E64675E6B97F0A0209
:020F6A000EACCB
:100EC800C2ACBF0A1275990D3099FDC29975990A7D
:100ED8003099FDC29980078F993099FDC299D2AC9B
:010EE80022E7
:0B0EE9007A0679DD120EF47A0679DD3E
:100EF4001209E1FF600C120EC8740129F9E43AFAF0
:030F040080EE225A
:100F21001209E1FF600C120EC8740129F9E43AFAC2
:030F310080EE222D
:100F3400D2997BFF7A06795A8F0D1200883099FD79
:030F4400C299222D
:100F4700D2997BFF7A06795E8F0D1200883099FD62
:030F5700C299221A
:100CE0007BFF7A067964120EF47A0679B6120EF456
:100CF0007A0679BC120EF4120EE97A0679DF120E2A
:100D0000F47A0679F5120EED7A0679F9120EF47F6F
:100D100030120F347BFF120EF07A07790F120EF4A7
:100D20007F09120F347BFF120EE97A077925120E24
:0F0D3000F47A067964120EF47A0679DD020EF475
:100C7B007BFF7A077971120EF47A077987120EF4DB
:100C8B00AF27120F347BFF120EF07A077999120EF1
:100C9B00F4AF22120F347BFF120EF07A0779AB12EE
:100CAB000EF4E4F508E508C39522501D74002508E1
:100CBB00F582E43400F583E0FF120F477BFF7A07E0
:100CCB0079BD120EF4050880DC7BFF120EF07A065C
:050CDB0079DD020EF4BA
:100D3F007FFF12000E8F097BFF7A0779BF120EF427
:100D4F007A077999120EF4AF09120F347BFF120E46
:100D5F00F07A0779AB120EF4E4F508E508C39509AC
:100D6F005015AF0812000E120F477BFF7A0779BD9F
:100D7F00120EF4050880E47BFF120EF07A0679DD7F
:030D8F00020EF45D
:100D92007FFF12000E8F22E522F46007E522C39442
:100DA2000C500BE4F5227BFF7A0779D88022E4FE0F
:100DB200EEC395225014AF0612000E74002EF58277
:100DC200E43400F583EFF00E80E67BFF7A0779EBDF
:030DD200120EED11
:010DD50022FB
:060E16008B088A09890A1D
:100E1C0005278D22E4FFEFC39D501EAB08AA09A93C
:100E2C000A8F827583001209FAFE74002FF582E492
:100E3C003400F583EEF00F80DD7BFF7A0779F91231
:090E4C000EF47A0679DD020EF4C1
:080DD6008B088A09890AAE05A9
:100DDE00120F6CAF067DFF120F5AE4FCECC39E504F
:100DEE0017AB08AA09A90A8C827583001209FAFFAB
:100DFE00AD04120F5A0C80E47BFF7A087906120EAE
:080E0E00F47A0679DD020EF40E
:08085E008B088A09890A8D0B41
:100866007BFF7A087915120EF4E4FEE50B24FDFFF2
:10087600EEC39F40030209D1E4F50CEE2404F58291
:10088600E433F583AB08AA09A90A1209FAFFE50CB5
:10089600C39F40030209CAE4F50DEEF58275830095
:1008A600A3AB08AA09A90A1209FAFFE50DC39F50CE
:1008B600548E827583001209FAFF54F0FDBDF01DB7
:1008C600C291EF540FFF120F0BD291AB08AA09A9E0
:1008D6000A8E827583001209FA540F8020C292ABE9
:1008E60008AA09A90A8E82758300120F07D292AB55
:1008F60008AA09A90A8E827583001209FAFF120F47
:100906000B050D8095E4F50EEEF582758300A3A325
:10091600AB08AA09A90A1209FAFFE50EC39F5007F8
:10092600120EA5050E80E1EEF582758300A3A3A342
:100936001209FAFF120EACAB08AA09A90A8E827533
:1009460083001209FA54F064F07074F50FEE240671
:10095600F582E433F583AB08AA09A90A1209FAFF5E
:10096600E50FC39F5026C292EE2405F582E433F5C7
:1009760083120F07D292EE2405F582E433F583AB9A
:1009860008AA09A90A120F07050F80C1E4F510EE9F
:100996002407F582E433F583AB08AA09A90A1209EC
:1009A600FAFFE510C39F5007120EA5051080E0EE72
:1009B6002408F582E433F5831209FAFF120EAC051A
:1009C6000C02088174092EFE0208717BFF7A0879F1
:0B09D60022120EF47A0679DD020EF406
:10038200852623E523C3940C500302041DE5232490
:10039200FDFFE434FFFE7C007D09120A27ED707B2D
:1003A200900030E054F0FF64F06003EF706D742F42
:1003B2002523F582E43400F583E0FC7029742E25B0
:1003C20023F582E43400F583E0701B742D2523F5B8
:1003D20082E43400F583E0700DF5267B017A007922
:1003E20030AD23020E16EC6411702C742E2523F509
:1003F20082E43400F583E0B4111D742D2523F582C7
:10040200E43400F583E0B4110EE4F5267B017A00B2
:100412007930AD230204E5E4F52622E523C39405F1
:100422004061742F2523F582E43400F583E064EE05
:100432007051742E2523F582E43400F583E064EED6
:100442007041742D2523F582E43400F583E064EED7
:100452007031742C2523F582E43400F583E0B4EE88
:1004620022742B2523F582E43400F583E0B4EE13E5
:10047200E4F5267BFF7A087935120EF47A0679DDE7
:10048200020EF4E523C39405405C742F2523F58204
:10049200E43400F583E064EF704C742E2523F5827A
:1004A200E43400F583E064EF703C742D2523F5827B
:1004B200E43400F583E064EF702C742C2523F5827C
:1004C200E43400F583E0B4EF1D742B2523F582E4B8
:1004D2003400F583E0B4EF0EE4F5267B017A00796F
:1004E20000AD2202085EE523C394054053742F2514
:1004F20023F582E43400F583E064E07043742E2532
:1005020023F582E43400F583E064E07033742D2532
:1005120023F582E43400F583E0B4E024742C25232F
:10052200F582E43400F583E0B4E015742B2523F55D
:1005320082E43400F583E0B4E006E4F526020C7BA5
:10054200E523C394054053742F2523F582E4340038
:10055200F583E064E17043742E2523F582E43400D0
:10056200F583E064E17033742D2523F582E43400D1
:10057200F583E0B4E124742C2523F582E43400F5FC
:1005820083E0B4E115742B2523F582E43400F5836E
:10059200E0B4E106E4F526020D3FE523C3940540ED
:1005A2005C742F2523F582E43400F583E064E57062
:1005B2004C742E2523F582E43400F583E064E57063
:1005C2003C742D2523F582E43400F583E064E57064
:1005D2002C742C2523F582E43400F583E0B4E51D68
:1005E200742B2523F582E43400F583E0B4E50EE4B0
:1005F200F5267B017A007900AD22020DD6E523C3F0
:1006020094054053742F2523F582E43400F583E0EA
:1006120064E67043742E2523F582E43400F583E00A
:1006220064E67033742D2523F582E43400F583E00B
:10063200B4E624742C2523F582E43400F583E0B477
:10064200E615742B2523F582E43400F583E0B4E645
:0806520006E4F526120D9222C8
:100E5500758920758DFD858D8B759850E4F587D244
:100E6500AC438902758CA4858C8AD2A9D2AFD28E67
:090E750075E79A75E321F5E4220A
:0E0F7A00120E55120CE0120D9212038280FB33
:03002300020AC40A
:100AC400C0E0C083C082C0D075D000C001C002C0E5
:100AD40003C007209803020B65C29874302526F5DD
:100AE40082E43400F583E599F00526E526D39430B5
:100AF4004003752600E526C394054065742F25261A
:100B0400F582E43400F583E064EA7055742E2526FA
:100B1400F582E43400F583E064EA7045742D2526FB
:100B2400F582E43400F583E064EA7035742C2526FC
:100B3400F582E43400F583E064EA7025742B2526FD
:100B4400F582E43400F583E0B4EA167526007BFFF1
:100B54007A08794D120F217A0679DD120F2143E7C5
:100B640020D007D003D002D001D0D0D082D083D0FF
:020B7400E0326D
:03000B00020F8859
:0D0F8800C0E00525E52570020524D0E0320B
:100B8200020F7AE493A3F8E493A34003F68001F200
:100B920008DFF48029E493A3F85407240CC8C33374
:100BA200C4540F4420C8834004F456800146F6DF43
:100BB200E4800B0102040810204080900C02E47EC5
:100BC200019360BCA3FF543F30E509541FFEE49338
:100BD200A360010ECF54C025E060A840B8E493A3FF
:100BE200FAE493A3F8E493A3C8C582C8CAC583CA2A
:100BF200F0A3C8C582C8CAC583CADFE9DEE780BEE2
:010C7A000079
:1009E100BB010689828A83E0225002E722BBFE0214
:0909F100E32289828A83E4932247
:1009FA00BB010CE58229F582E5833AF583E02250B2
:100A0A0006E92582F8E622BBFE06E92582F8E222FB
:0D0A1A00E58229F582E5833AF583E4932215
:100A2700BC000BBE0029EF8DF084FFADF022E4CCB3
:100A3700F875F008EF2FFFEE33FEEC33FCEE9DEC7C
:100A4700984005FCEE9DFE0FD5F0E9E4CEFD22EDC2
:100A5700F8F5F0EE8420D21CFEADF075F008EF2F0C
:100A6700FFED33FD4007985006D5F0F222C398FDFD
:050A77000FD5F0EA229A
:10002600E519240DF8E6051922780A300702780D3D
:10003600E475F001120A8E0209E12000EB7F2ED250
:10004600008018EF540F2490D43440D4FF30040BB2
:10005600EF24BFB41A0050032461FFE51A600215AD
:100066001A051DE51D7002051C30070D780AE4759A
:10007600F001120A8EEF020A7C020E7E7403D2078A
:100086008003E4C207F5198B0A8A0B890CE4F51A7A
:10009600F51CF51DE51A60077F2012006180F575D5
:1000A6001BFFC201C200C202C203C205C206C208C9
:1000B60012002FFF700D3007057F00120072AF1D72
:1000C600AE1C22B4255FC2D5C20412002FFF24D075
:1000D600B40A00501A75F00A781A30D50508B6FF2A
:1000E6000106C6A426F620D5047002D20380D924C0
:1000F600CFB41A00EF5004C2E5D204020272D20154
:1001060080C6D20080C0D20280BCD2D580BAD205C9
:1001160080B47F201200612002077401B51A0040E6
:10012600F1120026FF12006102009AD208D2068060
:1001360095120026FB120026FA120026F94A4B7089
:100146000679437A037BFF20022EE51A602A7E0099
:100156008E827583001209FA60060EEE651B70F03A
:10016600C2D5EBC0E0EAC0E0E9C0E0EE1202B9D0C9
:10017600E0F9D0E0FAD0E0FB1209E1FF60AAEBC09B
:10018600E0EAC0E0E9C0E0120061D0E02401F9D065
:10019600E03400FAD0E0FBE51B0460DCD51BD98017
:1001A600877BFF7A0279B5D202809C79108002792A
:1001B60008C206C2088008D2D5790A8004790AC224
:1001C600D5E51B047002F51BE4FAFDFEFF120026BE
:1001D600FC7B08200113120026FD7B1030000A125A
:1001E6000026FE120026FF7B20EC3382D592D550E6
:1001F60013C3E43000069FFFE49EFEE42001039D46
:10020600FDE49CFCE4CBF8C201EC700CCFCECDCC67
:10021600E824F8F870F38017C3EF33FFEE33FEEDF2
:1002260033FDEC33FCEB33FB994002FB0FD8E9EBD3
:10023600300105F8D0E0C448B201C0E00AEC4D4EEA
:100246004F78207B0070C2EAB51B0040BCC0E012AC
:1002560002BBD0F0D0E0200104C4C0E0C4B201C0AB
:10026600F012004AD0F0D5F0EB02009A120A9E0175
:10027600375301B15801084C01044201B54F01BD85
:0F0286004401BD49011D4301C35501A74601A70E
:100295004501A747036350010C2D01102E01332B97
:1002A500011423013120034C2A00CC480000012B06
:1002B5003F3F3F00790AA2D5200314300509B91044
:1002C500020404B9080104A2D52006025001042045
:1002D50002689202B51A005034C0E07F203003193D
:1002E5007F30A20272067205500F120312C202C2BB
:1002F50006C205C2087F30800F300503E9C0E01251
:100305000061300503D0E0F9D0E0B51ACC3005170F
:100315007F30B9100C1200617F583004077F788058
:1003250003B908031200613002057F2D0200617FC9
:10033500202008F87F2B2006F322920280CF286E1A
:10034500756C6C2900D2011200263001F8C20178C3
:100355001A30D50108F60200CC2D50434958120039
:10036500262403B405004001E490035E9312005275
:0D037500743A120052D203751A040201B14D
:100A7C00BB010689828A83F0225002F722BBFE0159
:020A8C00F32253
:100A8E00FAE6FB0808E6F925F0F618E6CA3AF62269
:100A9E00D083D082F8E4937012740193700DA3A3E7
:100AAE0093F8740193F5828883E4737402936860FB
:060ABE00EFA3A3A380DFFB
:100E7E00EFB40A07740D120E89740A309811A899EE
:100E8E00B8130CC2983098FDA899C298B811F630D4
:070E9E0099FDC299F59922AC
:00000001FF
