:03000000020B7F71
:0C0B7F00787FE4F6D8FD758127020BC6D4
:10066300256264002530326258003D3D3D3D3D3DED
:100673003D3D3D3D3D3D3D3D3D3D3D3D3D3D3D3DA7
:100683003D3D3D3D3D3D3D3D3D3D3D3D3D3D3D3D97
:100693003D3D3D3D3D3D3D3D3D3D3D3D3D3D3D3D87
:1006A3003D3D3D3D3D3D3D3D3D3D3D3D3D3D3D3D77
:1006B3003D3D3D3D3D3D3D3D3D3D0A00202020204B
:1006C300200053746570204D6F746F7220436F6EFA
:1006D30074726F6C2053797374656D2053657276F1
:1006E3006572000A0056657273696F6E20202020C0
:1006F30020202020202020203A2000312E34004DBD
:10070300617820636F6465206C656E677468202070
:1007130020203A2000436F646520626F6479206C67
:10072300656E6774682020203A2000466F72206D42
:100733006F72652064657469616C20696E666F729F
:100743006D6174696F6E2C20706C656173652072C6
:10075300656164207468652070726F6772616D20D3
:100763006D616E75616C20696E204F5559414E471E
:10077300204C61622E0A0052414D20636F64652054
:10078300696E666F726D6174696F6E0A0020202056
:1007930020636F6465206964202020203A200020B4
:1007A300202020636F6465206C656E6774683A204F
:1007B3000020202020636F64652064617461202021
:1007C3003A20002000454550524F4D20636F646529
:1007D30020696E666F726D6174696F6E0A0053747F
:1007E3006F7261676520697320656D7074792E0A75
:1007F30000436F6465206C6F616465642E0A004377
:100803006F64652073617665642E0A00436F6465C7
:10081300207772697474656E2E0A0052756E6E6964
:100823006E67202E2E2E0A0052756E6E696E67203B
:1008330066696E69736865642E0A00526573657430
:100843002073656E64206279746520636F756E74BE
:100853002E0A002A2A2A2A205245534554202A2A9E
:040863002A2A0A0033
:100C0B006030003000000000000000000000000019
:100C1B0000000000000000000000000000000000C9
:100C2B0000000000000000000000000000000000B9
:100C3B0000000000012600012300603000000000CE
:100C4B000000000000000000000000000000000099
:100C5B000000000000000000000000000000000089
:100C6B000000000000000000000000000000012256
:080C7B00000127000224000023
:040F1000120A03FFBF
:100F1400D28CEFFDC3E5259DE524940040F4C28CFA
:060F2400E4F524F525228E
:070EAE007FFF120EB57F016A
:100EB500AD07D28CED75F00AA4FFC3E5259FE524A7
:0C0EC50095F040F0C28CE4F524F52522E5
:0E0F750075E50375E64675E6B97F0A020EB50E
:10000E008FE475E50175E64675E6B97F01120EB50A
:03001E00AFE2222C
:100F63008FE28DE475E50275E64675E6B97F0A0200
:020F73000EB5B9
:100ED100C2ACBF0A1275990D3099FDC29975990A74
:100EE1003099FDC29980078F993099FDC299D2AC92
:010EF10022DE
:0B0EF2007A0679E6120EFD7A0679E61A
:100EFD001209EAFF600C120ED1740129F9E43AFAD5
:030F0D0080EE2251
:100F2A001209EAFF600C120ED1740129F9E43AFAA7
:030F3A0080EE2224
:100F3D00D2997BFF7A0679638F0D1200883099FD67
:030F4D00C2992224
:100F5000D2997BFF7A0679678F0D1200883099FD50
:030F6000C2992211
:100CE9007BFF7A06796D120EFD7A0679BF120EFD29
:100CF9007A0679C5120EFD120EF27A0679E8120EFD
:100D0900FD7A0679FE120EF67A077902120EFD7F38
:100D190030120F3D7BFF120EF97A077918120EFD7A
:100D29007F09120F3D7BFF120EF27A07792E120E00
:0F0D3900FD7A06796D120EFD7A0679E6020EFD3F
:100C84007BFF7A07797A120EFD7A077990120EFDAE
:100C9400AF27120F3D7BFF120EF97A0779A2120ECD
:100CA400FDAF22120F3D7BFF120EF97A0779B412C1
:100CB4000EFDE4F508E508C39522501D74002508CF
:100CC400F582E43400F583E0FF120F507BFF7A07CE
:100CD40079C6120EFD050880DC7BFF120EF97A0638
:050CE40079E6020EFD9F
:100D48007FFF12000E8F097BFF7A0779C8120EFD0C
:100D58007A0779A2120EFDAF09120F3D7BFF120E22
:100D6800F97A0779B4120EFDE4F508E508C3950988
:100D78005015AF0812000E120F507BFF7A0779C684
:100D8800120EFD050880E47BFF120EF97A0679E65B
:030D9800020EFD4B
:100D9B007FFF12000E8F22E522F46007E522C39439
:100DAB000C500BE4F5227BFF7A0779E18022E4FEFD
:100DBB00EEC395225014AF0612000E74002EF5826E
:100DCB00E43400F583EFF00E80E67BFF7A0779F4CD
:030DDB00120EF6FF
:010DDE0022F2
:060E1F008B088A09890A14
:100E250005278D22E4FFEFC39D501EAB08AA09A933
:100E35000A8F82758300120A03FE74002FF582E47F
:100E45003400F583EEF00F80DD7BFF7A087902121E
:090E55000EFD7A0679E6020EFD9D
:080DDF008B088A09890AAE05A0
:100DE700120F75AF067DFF120F63E4FCECC39E5034
:100DF70017AB08AA09A90A8C82758300120A03FF98
:100E0700AD04120F630C80E47BFF7A08790F120E92
:080E1700FD7A0679E6020EFDEA
:080867008B088A09890A8D0B38
:10086F007BFF7A08791E120EFDE4FEE50B24FDFFD7
:10087F00EEC39F40030209DAE4F50CEE2404F5827F
:10088F00E433F583AB08AA09A90A120A03FFE50CA2
:10089F00C39F40030209D3E4F50DEEF58275830083
:1008AF00A3AB08AA09A90A120A03FFE50DC39F50BB
:1008BF00548E82758300120A03FF54F0FDBDF01DA4
:1008CF00C291EF540FFF120F14D291AB08AA09A9CE
:1008DF000A8E82758300120A03540F8020C292ABD6
:1008EF0008AA09A90A8E82758300120F10D292AB43
:1008FF0008AA09A90A8E82758300120A03FF120F34
:10090F0014050D8095E4F50EEEF582758300A3A313
:10091F00AB08AA09A90A120A03FFE50EC39F5007E5
:10092F00120EAE050E80E1EEF582758300A3A3A330
:10093F00120A03FF120EB5AB08AA09A90A8E827517
:10094F008300120A0354F064F07074F50FEE24065E
:10095F00F582E433F583AB08AA09A90A120A03FF4B
:10096F00E50FC39F5026C292EE2405F582E433F5BE
:10097F0083120F10D292EE2405F582E433F583AB88
:10098F0008AA09A90A120F10050F80C1E4F510EE8D
:10099F002407F582E433F583AB08AA09A90A120AE2
:1009AF0003FFE510C39F5007120EAE051080E0EE57
:1009BF002408F582E433F583120A03FF120EB505FE
:1009CF000C02088A74092EFE02087A7BFF7A0879D6
:0B09DF002B120EFD7A0679E6020EFDD9
:10038200852623E523C3940C5003020426E5232487
:10039200FDFFE434FFFE7C007D09120A30ED6003AC
:1003A200020426900030E054F0FF64F06003EF7026
:1003B20073742F2523F582E43400F583E0FC702961
:1003C200742E2523F582E43400F583E0701B742D2E
:1003D2002523F582E43400F583E0700DF5267B01D8
:1003E2007A007930AD23020E1FEC6411600302061D
:1003F20062742E2523F582E43400F583E0641160F3
:1004020003020662742D2523F582E43400F583E0AD
:1004120064116003020662F5267B017A007930AD31
:10042200230204EEE523C394054061742F2523F5CE
:1004320082E43400F583E064EE7051742E2523F5D6
:1004420082E43400F583E064EE7041742D2523F5D7
:1004520082E43400F583E064EE7031742C2523F5D8
:1004620082E43400F583E0B4EE22742B2523F58276
:10047200E43400F583E0B4EE13E4F5267BFF7A085A
:10048200793E120EFD7A0679E6020EFDE523C3944B
:1004920005405C742F2523F582E43400F583E06483
:1004A200EF704C742E2523F582E43400F583E0646A
:1004B200EF703C742D2523F582E43400F583E0646B
:1004C200EF702C742C2523F582E43400F583E0B41C
:1004D200EF1D742B2523F582E43400F583E0B4EF9D
:1004E2000EE4F5267B017A007900AD22020867E569
:1004F20023C394054053742F2523F582E43400F579
:1005020083E064E07043742E2523F582E43400F521
:1005120083E064E07033742D2523F582E43400F522
:1005220083E0B4E024742C2523F582E43400F583BF
:10053200E0B4E015742B2523F582E43400F583E062
:10054200B4E006E4F526020C84E523C39405405387
:10055200742F2523F582E43400F583E064E17043CF
:10056200742E2523F582E43400F583E064E17033D0
:10057200742D2523F582E43400F583E0B4E124747C
:100582002C2523F582E43400F583E0B4E115742BC5
:100592002523F582E43400F583E0B4E106E4F52690
:1005A200020D48E523C39405405C742F2523F58290
:1005B200E43400F583E064E5704C742E2523F58263
:1005C200E43400F583E064E5703C742D2523F58264
:1005D200E43400F583E064E5702C742C2523F58265
:1005E200E43400F583E0B4E51D742B2523F582E4A1
:1005F2003400F583E0B4E50EE4F5267B017A007958
:1006020000AD22020DDFE523C394054053742F256C
:1006120023F582E43400F583E064E67043742E250A
:1006220023F582E43400F583E064E67033742D250B
:1006320023F582E43400F583E0B4E624742C252308
:10064200F582E43400F583E0B4E615742B2523F536
:1006520082E43400F583E0B4E606E4F526120D9B4D
:010662002275
:100E5E00758920758DFD858D8B759850E4F587D23B
:100E6E00AC438902758CA4858C8AD2A9D2AFD28E5E
:090E7E0075E79A75E321F5E42201
:0E0F8300120E5E120CE9120D9B12038280FB0F
:03002300020ACD01
:100ACD00C0E0C083C082C0D075D000C001C002C0DC
:100ADD0003C007209803020B6EC29874302526F5CB
:100AED0082E43400F583E599F00526E526D39430AC
:100AFD004003752600E526C394054065742F252611
:100B0D00F582E43400F583E064EA7055742E2526F1
:100B1D00F582E43400F583E064EA7045742D2526F2
:100B2D00F582E43400F583E064EA7035742C2526F3
:100B3D00F582E43400F583E064EA7025742B2526F4
:100B4D00F582E43400F583E0B4EA167526007BFFE8
:100B5D007A087956120F2A7A0679E6120F2A43E798
:100B6D0020D007D003D002D001D0D0D082D083D0F6
:020B7D00E03264
:03000B00020F9150
:0D0F9100C0E00525E52570020524D0E03202
:100B8B00020F83E493A3F8E493A34003F68001F2EE
:100B9B0008DFF48029E493A3F85407240CC8C3336B
:100BAB00C4540F4420C8834004F456800146F6DF3A
:100BBB00E4800B0102040810204080900C0BE47EB3
:100BCB00019360BCA3FF543F30E509541FFEE4932F
:100BDB00A360010ECF54C025E060A840B8E493A3F6
:100BEB00FAE493A3F8E493A3C8C582C8CAC583CA21
:100BFB00F0A3C8C582C8CAC583CADFE9DEE780BED9
:010C83000070
:1009EA00BB010689828A83E0225002E722BBFE020B
:0909FA00E32289828A83E493223E
:100A0300BB010CE58229F582E5833AF583E02250A8
:100A130006E92582F8E622BBFE06E92582F8E222F2
:0D0A2300E58229F582E5833AF583E493220C
:100A3000BC000BBE0029EF8DF084FFADF022E4CCAA
:100A4000F875F008EF2FFFEE33FEEC33FCEE9DEC73
:100A5000984005FCEE9DFE0FD5F0E9E4CEFD22EDB9
:100A6000F8F5F0EE8420D21CFEADF075F008EF2F03
:100A7000FFED33FD4007985006D5F0F222C398FDF4
:050A80000FD5F0EA2291
:10002600E519240DF8E6051922780A300702780D3D
:10003600E475F001120A970209EA2000EB7F2ED23E
:10004600008018EF540F2490D43440D4FF30040BB2
:10005600EF24BFB41A0050032461FFE51A600215AD
:100066001A051DE51D7002051C30070D780AE4759A
:10007600F001120A97EF020A85020E877403D2076F
:100086008003E4C207F5198B0A8A0B890CE4F51A7A
:10009600F51CF51DE51A60077F2012006180F575D5
:1000A6001BFFC201C200C202C203C205C206C208C9
:1000B60012002FFF700D3007057F00120072AF1D72
:1000C600AE1C22B4255FC2D5C20412002FFF24D075
:1000D600B40A00501A75F00A781A30D50508B6FF2A
:1000E6000106C6A426F620D5047002D20380D924C0
:1000F600CFB41A00EF5004C2E5D204020272D20154
:1001060080C6D20080C0D20280BCD2D580BAD205C9
:1001160080B47F201200612002077401B51A0040E6
:10012600F1120026FF12006102009AD208D2068060
:1001360095120026FB120026FA120026F94A4B7089
:100146000679437A037BFF20022EE51A602A7E0099
:100156008E82758300120A0360060EEE651B70F030
:10016600C2D5EBC0E0EAC0E0E9C0E0EE1202B9D0C9
:10017600E0F9D0E0FAD0E0FB1209EAFF60AAEBC092
:10018600E0EAC0E0E9C0E0120061D0E02401F9D065
:10019600E03400FAD0E0FBE51B0460DCD51BD98017
:1001A600877BFF7A0279B5D202809C79108002792A
:1001B60008C206C2088008D2D5790A8004790AC224
:1001C600D5E51B047002F51BE4FAFDFEFF120026BE
:1001D600FC7B08200113120026FD7B1030000A125A
:1001E6000026FE120026FF7B20EC3382D592D550E6
:1001F60013C3E43000069FFFE49EFEE42001039D46
:10020600FDE49CFCE4CBF8C201EC700CCFCECDCC67
:10021600E824F8F870F38017C3EF33FFEE33FEEDF2
:1002260033FDEC33FCEB33FB994002FB0FD8E9EBD3
:10023600300105F8D0E0C448B201C0E00AEC4D4EEA
:100246004F78207B0070C2EAB51B0040BCC0E012AC
:1002560002BBD0F0D0E0200104C4C0E0C4B201C0AB
:10026600F012004AD0F0D5F0EB02009A120AA7016C
:10027600375301B15801084C01044201B54F01BD85
:0F0286004401BD49011D4301C35501A74601A70E
:100295004501A747036350010C2D01102E01332B97
:1002A500011423013120034C2A00CC480000012B06
:1002B5003F3F3F00790AA2D5200314300509B91044
:1002C500020404B9080104A2D52006025001042045
:1002D50002689202B51A005034C0E07F203003193D
:1002E5007F30A20272067205500F120312C202C2BB
:1002F50006C205C2087F30800F300503E9C0E01251
:100305000061300503D0E0F9D0E0B51ACC3005170F
:100315007F30B9100C1200617F583004077F788058
:1003250003B908031200613002057F2D0200617FC9
:10033500202008F87F2B2006F322920280CF286E1A
:10034500756C6C2900D2011200263001F8C20178C3
:100355001A30D50108F60200CC2D50434958120039
:10036500262403B405004001E490035E9312005275
:0D037500743A120052D203751A040201B14D
:100A8500BB010689828A83F0225002F722BBFE0150
:020A9500F3224A
:100A9700FAE6FB0808E6F925F0F618E6CA3AF62260
:100AA700D083D082F8E4937012740193700DA3A3DE
:100AB70093F8740193F5828883E4737402936860F2
:060AC700EFA3A3A380DFF2
:100E8700EFB40A07740D120E92740A309811A899DC
:100E9700B8130CC2983098FDA899C298B811F630CB
:070EA70099FDC299F59922A3
:00000001FF
